:100000000C9462000C94EF050C94C8050C948A00C3
:100010000C948A000C946E060C948A000C948A004E
:100020000C948A000C948A000C948A000C948A0028
:100030000C948A000C948A000C948A000C948A0018
:100040000C947E050C948A000C943C060C941606C5
:100050000C948A000C948A000C948A000C948A00F8
:100060000C948A000C948A000000000024002700F1
:100070002A0000000000250028002B0000000000DE
:1000800023002600290004040404040404040202DA
:100090000202020203030303030301020408102007
:1000A0004080010204081020010204081020000012
:1000B0000008000201000003040700000000000027
:1000C0000000F20E11241FBECFEFD8E0DEBFCDBF7F
:1000D00011E0A0E0B1E0E6EFF2E202C005900D927F
:1000E000A831B107D9F722E0A8E1B1E001C01D9223
:1000F000A135B207E1F710E0C2E6D0E004C02197D5
:10010000FE010E94350FC136D107C9F70E94F506DE
:100110000C9479110C940000833081F028F4813024
:1001200099F08230A9F008958730A9F08830C9F09D
:100130008430B1F4809180008F7D03C08091800075
:100140008F7780938000089584B58F7784BD08955C
:1001500084B58F7DFBCF8091B0008F778093B00006
:1001600008958091B0008F7DF9CFCF93DF93282F32
:1001700030E0F901E255FF4F8491F901E656FF4F57
:10018000D491F901EA57FF4FC491CC23A1F081111A
:100190000E948C00EC2FF0E0EE0FFF1FE458FF4FA1
:1001A000A591B491EC91ED2381E090E009F480E019
:1001B000DF91CF91089580E090E0FACF1F93CF9325
:1001C000DF93282F30E0F901E255FF4F8491F901C8
:1001D000E656FF4FD491F901EA57FF4FC491CC2363
:1001E000A9F0162F81110E948C00EC2FF0E0EE0F89
:1001F000FF1FEE58FF4FA591B4918FB7F894EC9183
:10020000111108C0D095DE23DC938FBFDF91CF9111
:100210001F910895DE2BF8CFCF93DF9390E0FC0180
:10022000E656FF4F24918A579F4FFC018491882303
:10023000D1F090E0880F991FFC01E859FF4FA5917C
:10024000B491FC01EE58FF4FC591D491623071F426
:100250009FB7F8943C91822F809583238C93E881FB
:100260002E2B28839FBFDF91CF9108958FB7F894ED
:10027000EC912E2B2C938FBFF6CF1F93CF93DF9350
:10028000182FEB0161E00E940C01209739F460E027
:10029000812FDF91CF911F910C94DE00CF3FD105CC
:1002A00011F461E0F5CFE12FF0E0E255FF4FE4916A
:1002B000E33031F140F4E130B1F0E230E1F0C03848
:1002C000D1057CF7E4CFE73029F1E83059F1E4308B
:1002D000B1F780918000806280938000D0938B0082
:1002E000C0938A0004C084B5806884BDC7BDDF9117
:1002F000CF911F91089584B5806284BDC8BDF7CFAA
:1003000080918000806880938000D0938900C093A2
:100310008800EDCF8091B00080688093B000C093DA
:10032000B300E5CF8091B00080628093B000C093AD
:10033000B400DDCF2FB7F89460914D0270914E025A
:1003400080914F02909150022FBF08950895AF926F
:10035000BF92CF92DF92EF92FF920F931F93CF93B2
:10036000DF936C017B018B01040F151FEB015E0114
:10037000AE18BF08C017D10759F06991D601ED91A9
:10038000FC910190F081E02DC6010995892B79F748
:10039000C501DF91CF911F910F91FF90EF90DF90FA
:1003A000CF90BF90AF900895FC01538D448D252FC1
:1003B00030E0842F90E0821B930B541710F0CF96FF
:1003C000089501970895FC01918D828D981761F031
:1003D000A28DAE0FBF2FB11D5D968C91928D9F5F48
:1003E0009F73928F90E008958FEF9FEF0895FC0127
:1003F000918D828D981731F0828DE80FF11D858DDA
:1004000090E008958FEF9FEF0895FC01918D228D6C
:10041000892F90E0805C9F4F821B91098F739927F1
:1004200008958DE291E00E94050221E0892B09F4F4
:1004300020E0822F089580E090E0892B29F00E942F
:10044000110281110C9400000895FC01A48DA80FE5
:10045000B92FB11DA35ABF4F2C91848D90E0019606
:100460008F739927848FA689B7892C93A089B18926
:100470008C91837080648C93938D848D981306C0C7
:100480000288F389E02D80818F7D80830895EF922B
:10049000FF920F931F93CF93DF93EC0181E0888F3E
:1004A0009B8D8C8D98131AC0E889F989808185FF0E
:1004B00015C09FB7F894EE89FF896083E889F989B0
:1004C00080818370806480839FBF81E090E0DF91B2
:1004D000CF911F910F91FF90EF900895F62E0B8D05
:1004E00010E00F5F1F4F0F731127E02E8C8D8E11C0
:1004F0000CC00FB607FCFACFE889F989808185FF27
:10050000F5CFCE010E942502F1CFEB8DEC0FFD2F30
:10051000F11DE35AFF4FF0829FB7F8940B8FEA89E1
:10052000FB8980818062CFCFCF93DF93EC01888DF0
:100530008823B9F0AA89BB89E889F9898C9185FD5E
:1005400003C0808186FD0DC00FB607FCF7CF8C91EC
:1005500085FFF2CF808185FFEDCFCE010E9425027D
:10056000E9CFDF91CF9108954F925F926F927F9282
:100570008F929F92AF92BF92CF92DF92EF92FF92B3
:100580000F931F93CF93DF9300D000D000D0CDB74F
:10059000DEB79E838D834A015B0109831A832B8317
:1005A0003C83B70190E080E00E94551020E030E0ED
:1005B0004AE754E40E94AD0F2B013C0120E030E0FB
:1005C000A9010E94A80F18160CF0D0C029813A8109
:1005D0004B815C81C501B4010E943B0F4B015C0162
:1005E000ED81FE8120813181428153810E940C1175
:1005F00069837A838B839C83A5019401C301B20133
:100600000E940C11ED81FE81248535854685578534
:100610000E943C0FED81FE816487758786879787EE
:10062000C488D588E688F788A70196010E9407113B
:10063000181634F4ED81FE81C486D586E686F786E9
:10064000F7FAF094F7F8F094A7019601ED81FE8196
:1006500064857585868597850E94A80F87FF06C0EB
:10066000ED81FE81C486D586E686F786ED81FE8122
:100670002485358546855785648175818681978176
:100680000E940C116B017C01ED81FE812089318972
:1006900042895389C501B4010E943B0FA301920115
:1006A0000E94AD0FED81FE81208531854285538505
:1006B0000E940C112B013C01ED81FE81808A918A00
:1006C000A28AB38AA701960169817A818B819C8174
:1006D0000E943C0FA30192010E943C0F6B017C0120
:1006E000ED81FE81628D738D072E000C880B990BB6
:1006F0000E9457104B015C019601A7010E94A80FB0
:1007000087FF02C064017501ED81FE81608D718DEE
:10071000072E000C880B990B0E9457105B018D83EC
:1007200099839601A7010E94071118161CF4650110
:10073000ED80F980B601C7010E941F10CB012696FB
:100740000FB6F894DEBF0FBECDBFDF91CF911F91E2
:100750000F91FF90EF90DF90CF90BF90AF909F9060
:100760008F907F906F905F904F90089590E080E021
:10077000E6CF60E087E00E94DE0060E088E00E9453
:10078000DE0070E060E086E00E943D0160E08AE00B
:100790000E94DE0060E08BE00E94DE0070E060E01E
:1007A00089E00C943D0161E087E00E94DE0061E099
:1007B00088E00E94DE006FEF70E086E00E943D015D
:1007C00061E08AE00E94DE0061E08BE00E94DE00D2
:1007D0006FEF70E089E00C943D01CF93DF93EC0163
:1007E0001816190684F461E08AE00E94DE0060E0D9
:1007F0008BE00E94DE00BE01CF3FD105A9F0A4F03E
:100800006FEF70E011C0892BA1F060E08AE00E94D8
:10081000DE0061E08BE00E94DE00662777276C1B1C
:100820007D0BC130DF4F64F389E0DF91CF910C94F1
:100830003D0161E08AE00E94DE0061E08BE00E9401
:10084000DE0070E060E0F0CFCF93DF93EC0118168C
:10085000190684F461E087E00E94DE0060E088E031
:100860000E94DE00BE01CF3FD105A9F0A4F06FEFDA
:1008700070E011C0892BA1F060E087E00E94DE00EB
:1008800061E088E00E94DE00662777276C1B7D0B05
:10089000C130DF4F64F386E0DF91CF910C943D01CE
:1008A00061E087E00E94DE0061E088E00E94DE00F7
:1008B00070E060E0F0CF282FFC0180E037E09191FC
:1008C000892798E087FF09C0880F83279150D1F7C7
:1008D0009E2F921B961798F30895880FF7CF6F926B
:1008E0007F928F929F92AF92BF92CF92DF92EF92C0
:1008F000FF920F931F93CF93DF93CDB7DEB72F9760
:100900000FB6F894DEBF0FBECDBF682E762E4A011B
:1009100059010091210110912201609133027091DF
:10092000340280913502909136020E941F106B01B3
:1009300060913702709138028091390290913A02A9
:100940000E941F102AEA29836A827B829D828C8200
:10095000BF82AE8279876887DB86CA861D870C874F
:100960006CE0CE0102960E945B048E8785E58F873E
:100970004FE050E0BE016F5F7F4F8DE291E00E943B
:10098000A7012F960FB6F894DEBF0FBECDBFDF9143
:10099000CF911F910F91FF90EF90DF90CF90BF907C
:1009A000AF909F908F907F906F900895CF93DF933B
:1009B00082E00E94B500EC0183E00E94B500C817F8
:1009C000D90749F58091CA019091CB01A091CC0142
:1009D000B091CD010196A11DB11D8093CA019093E4
:1009E000CB01A093CC01B093CD01809118019091DF
:1009F0001901A0911A01B0911B010196A11DB11D11
:100A00008093180190931901A0931A01B0931B01D0
:100A1000DF91CF9108958091CA019091CB01A0916F
:100A2000CC01B091CD010197A109B1098093CA0110
:100A30009093CB01A093CC01B093CD01809118018C
:100A400090911901A0911A01B0911B010197A10980
:100A5000B109D6CFCF93DF9382E00E94B500EC01BD
:100A600083E00E94B500C817D90749F58091CA01F3
:100A70009091CB01A091CC01B091CD010197A1093A
:100A8000B1098093CA019093CB01A093CC01B0939C
:100A9000CD018091180190911901A0911A01B09196
:100AA0001B010197A109B1098093180190931901C5
:100AB000A0931A01B0931B01DF91CF91089580910B
:100AC000CA019091CB01A091CC01B091CD010196CA
:100AD000A11DB11D8093CA019093CB01A093CC01BD
:100AE000B093CD018091180190911901A0911A0144
:100AF000B0911B010196A11DB11DD6CF1F920F927F
:100B00000FB60F9211242F933F938F939F93AF9320
:100B1000BF9380914D0290914E02A0914F02B091EF
:100B2000500230914C0226E0230F2D3758F50296E3
:100B3000A11DB11D20934C0280934D0290934E0253
:100B4000A0934F02B09350028091480290914902C5
:100B5000A0914A02B0914B020196A11DB11D809354
:100B6000480290934902A0934A02B0934B02BF916E
:100B7000AF919F918F913F912F910F900FBE0F904A
:100B80001F90189529E8230F0396A11DB11DD2CF00
:100B90001F920F920FB60F9211242F933F934F93F2
:100BA0005F936F937F938F939F93AF93BF93EF93D5
:100BB000FF93E0910201F09103010995FF91EF91FC
:100BC000BF91AF919F918F917F916F915F914F9165
:100BD0003F912F910F900FBE0F901F9018951F926D
:100BE0000F920FB60F9211242F933F934F935F9361
:100BF0006F937F938F939F93AF93BF93EF93FF93E5
:100C0000E0910001F09101010995FF91EF91BF91F1
:100C1000AF919F918F917F916F915F914F913F9194
:100C20002F910F900FBE0F901F9018951F920F924B
:100C30000FB60F9211242F933F934F935F936F93AF
:100C40007F938F939F93AF93BF93EF93FF938DE227
:100C500091E00E942502FF91EF91BF91AF919F918A
:100C60008F917F916F915F914F913F912F910F9055
:100C70000FBE0F901F9018951F920F920FB60F92F4
:100C800011242F938F939F93EF93FF93E0913D0156
:100C9000F0913E018081E0914301F091440182FD99
:100CA0001BC09081809146018F5F8F732091470117
:100CB000821741F0E0914601F0E0E35DFE4F958F31
:100CC00080934601FF91EF919F918F912F910F900B
:100CD0000FBE0F901F9018958081F4CF1F920F9236
:100CE0000FB60F9211240F931F932F933F934F939F
:100CF0005F936F937F938F939F93AF93BF93EF9384
:100D0000FF9384E00E94B5008C0185E00E94B5004D
:100D1000000F111F802B90912001981709F44EC0ED
:100D2000E091200194E0E99FF0011124E82B319734
:100D3000EE30F10508F057C0E056F94F0C94350F2E
:100D4000AE06F106F306F106F306F306AE06AE06AE
:100D5000F306F306F106F306F106AE0641E0042EB3
:100D6000000C550B660B770B0091CE011091CF0153
:100D70002091D0013091D101040F151F261F371F7C
:100D80000093CE011093CF012093D0013093D10175
:100D900000911C0110911D0120911E0130911F0135
:100DA000400F511F621F731F40931C0150931D0180
:100DB00060931E0170931F0180932001FF91EF91BA
:100DC000BF91AF919F918F917F916F915F914F9163
:100DD0003F912F911F910F910F900FBE0F901F9079
:100DE00018954FEFBCCF40E0BACFCF93DF93CDB78C
:100DF000DEB729970FB6F894DEBF0FBECDBF78944B
:100E000084B5826084BD84B5816084BD85B582600F
:100E100085BD85B5816085BD80916E0081608093C0
:100E20006E00109281008091810082608093810029
:100E30008091810081608093810080918000816039
:100E4000809380008091B10084608093B100809194
:100E5000B00081608093B00080917A0084608093BC
:100E60007A0080917A00826080937A0080917A0083
:100E70008E7F80937A0080917A00806880937A00D8
:100E80001092C10061E08DE00E940C0161E08DE0F4
:100E90000E94DE00E0913D01F0913E0182E08083FE
:100EA000E0913901F0913A011082E0913B01F0911B
:100EB0003C0189E1808310924501E0914101F0916C
:100EC000420186E08083E0913F01F0914001808102
:100ED00080618083E0913F01F091400180818860D2
:100EE0008083E0913F01F0914001808180688083A0
:100EF000E0913F01F091400180818F7D808362E02D
:100F000082E00E940C0162E083E00E940C0162E03A
:100F100084E00E940C0162E085E00E940C018AE2FC
:100F200095E09093010180930001809169008C7F8E
:100F3000816080936900E89A86ED94E090930301C4
:100F40008093020180916900837F846080936900AF
:100F5000E99A84E00E94B5008C0185E00E94B5000A
:100F6000000F111F082B00932001809168008460FE
:100F70008093680080916D00806380936D0061E0D4
:100F800086E00E940C0161E087E00E940C0161E0B4
:100F900088E00E940C0161E089E00E940C0161E0A0
:100FA0008AE00E940C0161E08BE00E940C010E942B
:100FB000D30390E080E00E941F0F8A3C09F403C134
:100FC00080E090E0A0E0B0E48093DE019093DF0148
:100FD000A093E001B093E10180E090E0A0E0BFE3E6
:100FE0008093E2019093E301A093E401B093E501C3
:100FF0008DEC9CECACECBDE38093E6019093E701B3
:10100000A093E801B093E90180E090E0A8E4B3E4A4
:101010008093EA019093EB01A093EC01B093ED0172
:101020008AE08093EE014091EA015091EB016091DA
:10103000EC017091ED010091E6011091E701209122
:10104000E8013091E901C090E201D090E301E09025
:10105000E401F090E5018090DE019090DF01A09026
:10106000E001B090E10180920B0290920C02A092FC
:101070000D02B0920E02C0920F02D0921002E092C6
:101080001102F092120200931302109314022093A3
:101090001502309316021092170210921802109245
:1010A000190210921A0210921B0210921C02109246
:1010B0001D0210921E0240931F0250932002609363
:1010C00021027093220210922402109223028FEFC9
:1010D00090E090932602809325028092EF019092F7
:1010E000F001A092F101B092F201C092F301D0920E
:1010F000F401E092F501F092F6010093F7011093EC
:10110000F8012093F9013093FA011092FB0110923B
:10111000FC011092FD011092FE011092FF0110924D
:1011200000021092010210920202409303025093B7
:101130000402609305027093060210920802109256
:10114000070290930A02809309020E949A01609319
:10115000DA017093DB018093DC019093DD0188E17B
:101160009FE00FB6F894A895809360000FBE90930F
:1011700060000E949A0160933B0270933C0280934E
:101180003D0290933E0260E08DE00E94DE0080917F
:101190000401882309F0A8958DE291E00E940502E0
:1011A000892B09F4C0C08DE291E00E94E301E09137
:1011B0002C01E1111AC08A3A79F7F1E0F0932C0181
:1011C00080932301E9CFAEEDEA2EA1E0FA2E01E0F3
:1011D00010E0C8010E941F0FF70181937F010F5F8C
:1011E0001F4F02311105A9F71ECF91E09E0F90937A
:1011F0002C01F0E0ED5DFE4F8083993068F2109293
:101200002C0180912B01853539F689E0E3E2F1E08C
:10121000DE01119601900D928A95E1F789818A3A53
:1012200009F0BACF66E0CE0102960E945B04988571
:101230008913B2CF80912101909122010196909360
:101240002201809321010E949A016093DA01709338
:10125000DB018093DC019093DD010E949A01609391
:1012600044027093450280934602909347028A811C
:10127000EEEBE80FE63108F0FFC3F0E0EE5BF64F6F
:101280000C94350F820B3C0DEB0C3C0D070DCC0B79
:101290003C0D3C0D3C0D3C0D3C0D3C0DF40C3C0D4F
:1012A000FE0A3C0D5809410B180C3C0DC40BC70C31
:1012B0004C815D814338510514F042E850E04E37CF
:1012C0000FEF500714F44EE75FEF2E813F81233874
:1012D000310514F022E830E02E371FEF310714F407
:1012E0002EE73FEF50932B0240932A0230932902BE
:1012F0002093280281E080932702109232021092FC
:10130000D6011092D7011092D8011092D9011092F3
:10131000D2011092D3011092D4011092D5016B81A9
:1013200082E70E946F040E949A0120913B02309153
:101330003C021B01221A330A54E12516310408F439
:10134000F0C360933B0270933C0280933D02909304
:101350003E02F8948090CA019090CB01A090CC01FD
:10136000B090CD017894F894C090CE01D090CF0188
:10137000E090D001F090D1017894F8941092CA01D5
:101380001092CB011092CC011092CD017894F89478
:101390001092CE011092CF011092D0011092D10183
:1013A0007894B10190E080E00E9455109B01AC015F
:1013B00060E070E68AE697E40E94AD0F2B013C01E5
:1013C000C501B4010E94571020E030E04DEF54E415
:1013D0000E94AD0FA30192010E940C114B015C0110
:1013E0008092370290923802A0923902B0923A026B
:1013F000C701B6010E94571020E030E04DEF54E4E1
:101400000E94AD0FA30192010E940C112B013C011F
:10141000409233025092340260923502709236024A
:101420008091320281117DC380910401882309F4E7
:1014300062C000913102109130020E949A016B014A
:101440007C018091DA019091DB01A091DC01B091E7
:10145000DD01A7019601281B390B4A0B5B0BDA0152
:10146000C901853F9140A105B10508F022C3193C8F
:1014700008F4AAC3C501B4010E941F106C5F7F4F1E
:101480006930710508F0A0C38091D6019091D70111
:10149000A091D801B091D9010097A105B10509F03B
:1014A000F2C2C092D601D092D701E092D801F09258
:1014B000D901093C08F4A8C3C301B2010E941F105E
:1014C0006C5F7F4F6930710508F09EC38091D20137
:1014D0009091D301A091D401B091D5010097A105BD
:1014E000B10509F07AC3C092D201D092D301E09243
:1014F000D401F092D50180912702882309F411C309
:101500008091EE0190E040912A0250912B022091AF
:101510002E0230912F02BA01621B730B86179707B8
:101520000CF07BC3280F391F30932F0220932E021B
:10153000409128025091290220912C0230912D02D5
:10154000BA01621B730B861797070CF075C3820FE5
:10155000931F90932D0280932C02C0902E02D09066
:101560002F02C114D10409F07AC3C501B4010E944D
:101570001F106C5F7F4F6930710508F007C490E061
:1015800080E00E9424041092300210921702109200
:1015900018021092190210921A0210921B02109255
:1015A0001C0210921D0210921E02A0902C02B090FC
:1015B0002D02A114B10409F086C3C301B2010E9437
:1015C0001F106C5F7F4F6930710508F0F5C390E024
:1015D00080E00E94ED03109231021092FB01109204
:1015E000FC011092FD011092FE011092FF01109279
:1015F0000002109201021092020293C20C811D811E
:101600000F3F110519F014F00FEF10E001309FEFBC
:10161000190714F401E01FEFCE80DF80EFEFCE1644
:10162000D10421F01CF0CC24CA94D12CF1E0CF16C7
:10163000FFEFDF0624F4CC24C394DD24DA9421E008
:101640002093320210922702C8010E942404C6018E
:101650000E94ED03C80117FF04C088279927801B4B
:10166000910B80933002C601D7FE04C088279927CA
:101670008C199D09809331029601A8016B8180E746
:1016800050CE10922B0210922A0210922902109230
:10169000280210922F0210922E0210922D02109208
:1016A0002C0210922702109232020E94B90310926B
:1016B0001702109218021092190210921A02109238
:1016C0001B0210921C0210921D0210921E02109218
:1016D000FB011092FC011092FD011092FE0110928C
:1016E000FF01109200021092010210920202109269
:1016F00030021092310230E020E050E040E060E043
:1017000083E70FCE10922B0210922A021092290228
:101710001092280210922F0210922E0210922D0287
:1017200010922C0210922702109232020E94D303D0
:1017300010921702109218021092190210921A02B7
:1017400010921B0210921C0210921D0210921E0297
:101750001092FB011092FC011092FD011092FE010B
:101760001092FF01109200021092010210920202E8
:101770003FEF309330023093310230E020E050E010
:1017800040E060E082E6CDCD2091040130E046E10A
:1017900050E060E086E7C5CD1B81133099F138F445
:1017A000113091F0123009F170E060E007C01430A0
:1017B000B1F16091EE0170E01530B1F730E020E05A
:1017C000AB01612F87E6ADCD20E030E048EC52E47C
:1017D0006091DE017091DF018091E0019091E10163
:1017E0000E940C110E941F10E9CF20E030E048EC6D
:1017F00052E46091E2017091E3018091E4019091E3
:10180000E501EECF20E030E048EC52E46091E601E3
:101810007091E7018091E8019091E901E1CF609139
:10182000EA017091EB018091EC019091ED01DACF2A
:101830001B81EC80FD80B7010F2C000C880B990BED
:101840000E9457102B013C0120E030E048EC52E4AC
:101850000E94AD0F133009F488C008F06CC011303D
:1018600009F471C0123009F477C08090DE019090C5
:10187000DF01A090E001B090E10180920B02909214
:101880000C02A0920D02B0920E024090E201509024
:10189000E3016090E4017090E50140920F025092E4
:1018A000100260921102709212024091E601509172
:1018B000E7016091E8017091E901409313025093B0
:1018C000140260931502709316028091EA019091C0
:1018D000EB01A091EC01B091ED0180931F02909378
:1018E0002002A0932102B09322028092EF019092F5
:1018F000F001A092F101B092F2014092F3015092F6
:10190000F4016092F5017092F6014093F701509353
:10191000F8016093F9017093FA01809303029093A8
:101920000402A0930502B093060230E020E0A70174
:10193000612F84E7F6CC143009F1153009F095CF0A
:10194000E092EE0192CF6093DE017093DF0180930D
:10195000E0019093E10189CF6093E2017093E3018C
:101960008093E4019093E50180CF6093E60170934A
:10197000E7018093E8019093E90177CF4092EA0173
:101980005092EB016092EC017092ED016ECF6AEC27
:1019900090E080E00E94270F0EED11E0EE24E3942A
:1019A000F12CF801D1908F01C7010E941F0FD816AA
:1019B00021F06D2DC7010E94270FFFEFEF1AFF0ADC
:1019C00022E1E216F10469F730E020E050E040E067
:1019D00060E087E7A6CC2091310230E040913002F0
:1019E00050E060E084E69DCC8AB144B19BB125B162
:1019F00030E0322F222722273F73292B50E0542F2B
:101A0000442744275F73482B60E08EE68ACC6B81C5
:101A100081E0611101C080E080930401611121C067
:101A20001092D6011092D7011092D8011092D901CC
:101A30001092D2011092D3011092D4011092D501CC
:101A40000FB6F894A895809160008861809360003B
:101A5000109260000FBE30E020E050E040E086E6EB
:101A600060CC38E14FE00FB6F894A8953093600051
:101A70000FBE40936000EFCF2E813F814C815D818E
:101A80006B8180624ECCA7019601281B390B4A0B53
:101A90005B0BDA01C901893E9340A105B10508F449
:101AA00008CD1092D6011092D7011092D801109251
:101AB000D9010E94B90310922F0210922E021092A7
:101AC0002D0210922C0210922B0210922A021092D8
:101AD00029021092280210922702109217021092E7
:101AE00018021092190210921A0210921B02109200
:101AF0001C0210921D0210921E021092FB01109205
:101B0000FC011092FD011092FE011092FF01109253
:101B10000002109201021092020210923002109202
:101B200031020E949A016B017C0140914402509164
:101B30004502609146027091470280914002909167
:101B40004102A0914202B091430241155105610545
:101B5000710509F4ECC097018601041B150B260BD7
:101B6000370BB901A801483E53406105710508F0E3
:101B7000DEC0A7019601281B390B4A0B5B0BDA016B
:101B8000C901843F9140A105B10588F0C09240028F
:101B9000D0924102E0924202F092430260913F02F1
:101BA00051E0652760933F028DE00E94DE00E0E097
:101BB000F0E0EF2B09F4EBCA0E941102882309F42C
:101BC000E6CA0E940000E3CA1092D6011092D70123
:101BD0001092D8011092D9016CCC97018601081B94
:101BE000190B2A0B3B0BD901C801893E9340A10573
:101BF000B10508F480CC1092D2011092D30110925A
:101C0000D4011092D50155CF1092D2011092D30178
:101C10001092D4011092D5016ECCEE27FF27E81B5D
:101C2000F90B6E177F071CF4281B390B7DCC5093E2
:101C30002F0240932E027CCCEE27FF27E81BF90BE6
:101C40006E177F073CF4281B390B30932D0220932D
:101C50002C0283CC50932D0240932C027ECC20E0AA
:101C600030E0A901C501B4010E940711181624F043
:101C7000B7FAB094B7F8B094B601D7FE04C066279F
:101C800077276C197D09072E000C880B990B0E9491
:101C90005710AB01BC017101950184018BE092E00A
:101CA0000E94B4028C0188279927801B910BD7FED4
:101CB000C8010E94240417FF03C011950195110962
:101CC0000093300272CC20E030E0A901C301B201E0
:101CD0000E940711181624F077FA709477F8709420
:101CE000B501B7FE04C0662777276A197B09072E5E
:101CF000000C880B990B0E945710AB01BC017101BD
:101D0000930182018FEE91E00E94B4028C0188273A
:101D10009927801B910BB7FEC8010E94ED0317FFA6
:101D200003C011950195110900933102FACE2601E5
:101D30003701481A590A6A0A7B0A4DE744165104CA
:101D40006104710410F461E02FCFD301C2018A5FF6
:101D50009109A109B10960E08D379105A105B1058F
:101D600008F461E08DE00E94DE0088EE481683E012
:101D700058066104710408F41ACFC0924002D09250
:101D80004102E0924202F092430211CF20E030E0A3
:101D9000A901C501B4010E94071118160CF068CF03
:101DA00071019501840140E050E0BA018BE092E0BE
:101DB0000E94B4028C017DCF20E030E0A901C30174
:101DC000B2010E94071118160CF086CF7101930121
:101DD000820140E050E0BA018FEE91E00E94B4022F
:101DE0008C019BCFEDE2F1E01382128288EE93E04A
:101DF000A0E0B0E084839583A683B78389E091E077
:101E00009183808385EC90E09587848784EC90E0D3
:101E10009787868780EC90E0918B808B81EC90E0B7
:101E2000938B828B82EC90E0958B848B86EC90E098
:101E3000978B868B118E128E138E148E0895F999BE
:101E4000FECF92BD81BDF89A992780B50895262FBF
:101E5000F999FECF1FBA92BD81BD20BD0FB6F8948F
:101E6000FA9AF99A0FBE01960895EE0FFF1F05909A
:101E7000F491E02D09945058BB27AA270E94530FD4
:101E80000C94CD100E94BF1038F00E94C61020F0B4
:101E900039F49F3F19F426F40C94BC100EF4E0952D
:101EA000E7FB0C94B610E92F0E94DE1058F3BA1726
:101EB000620773078407950720F079F4A6F50C9460
:101EC00000110EF4E0950B2EBA2FA02D0B01B901D5
:101ED00090010C01CA01A0011124FF27591B99F0A0
:101EE000593F50F4503E68F11A16F040A22F232FAC
:101EF000342F4427585FF3CF469537952795A795FC
:101F0000F0405395C9F77EF41F16BA0B620B730BA2
:101F1000840BBAF09150A1F0FF0FBB1F661F771F13
:101F2000881FC2F70EC0BA0F621F731F841F48F4C8
:101F3000879577956795B795F7959E3F08F0B0CF51
:101F40009395880F08F09927EE0F97958795089538
:101F50000E94921008F481E008950E94C10F0C9431
:101F6000CD100E94C61058F00E94BF1040F029F416
:101F70005F3F29F00C94B61051110C9401110C9490
:101F8000BC100E94DE1068F39923B1F3552391F33E
:101F9000951B550BBB27AA2762177307840738F0D8
:101FA0009F5F5F4F220F331F441FAA1FA9F335D035
:101FB0000E2E3AF0E0E832D091505040E695001CE9
:101FC000CAF72BD0FE2F29D0660F771F881FBB1FA3
:101FD000261737074807AB07B0E809F0BB0B802D81
:101FE000BF01FF2793585F4F3AF09E3F510578F0AD
:101FF0000C94B6100C9401115F3FE4F3983ED4F3B7
:10200000869577956795B795F7959F5FC9F7880F80
:10201000911D9695879597F90895E1E0660F771FD2
:10202000881FBB1F621773078407BA0720F0621B63
:10203000730B840BBA0BEE1F88F7E09508950E948E
:1020400026106894B1110C94011108950E94E610B5
:1020500088F09F5798F0B92F9927B751B0F0E1F069
:10206000660F771F881F991F1AF0BA95C9F714C019
:10207000B13091F00E940011B1E008950C9400116C
:10208000672F782F8827B85F39F0B93FCCF3869552
:1020900077956795B395D9F73EF4909580957095AF
:1020A00061957F4F8F4F9F4F0895E89409C097FB2C
:1020B0003EF490958095709561957F4F8F4F9F4F1F
:1020C0009923A9F0F92F96E9BB279395F695879563
:1020D00077956795B795F111F8CFFAF4BB0F11F426
:1020E00060FF1BC06F5F7F4F8F4F9F4F16C08823CD
:1020F00011F096E911C0772321F09EE8872F762F03
:1021000005C0662371F096E8862F70E060E02AF043
:102110009A95660F771F881FDAF7880F969587952F
:1021200097F90895990F0008550FAA0BE0E8FEEF04
:1021300016161706E807F907C0F012161306E4078B
:10214000F50798F0621B730B840B950B39F40A2684
:1021500061F0232B242B252B21F408950A2609F462
:10216000A140A6958FEF811D811D089597F99F6766
:1021700080E870E060E008959FEF80EC089500240F
:102180000A941616170618060906089500240A94DC
:1021900012161306140605060895092E0394000C62
:1021A00011F4882352F0BB0F40F4BF2B11F460FFF1
:1021B00004C06F5F7F4F8F4F9F4F089557FD90581A
:1021C000440F551F59F05F3F71F04795880F97FBFB
:1021D000991F61F09F3F79F08795089512161306B5
:1021E0001406551FF2CF4695F1DF08C016161706E4
:1021F0001806991FF1CF8695710561050894089519
:10220000E894BB2766277727CB0197F908950E94AA
:10221000921008F48FEF08950E941F110C94CD10B6
:102220000E94BF1038F00E94C61020F0952311F0D4
:102230000C94B6100C94BC1011240C9401110E9443
:10224000DE1070F3959FC1F3950F50E0551F629F0C
:10225000F001729FBB27F00DB11D639FAA27F00DFF
:10226000B11DAA1F649F6627B00DA11D661F829F26
:102270002227B00DA11D621F739FB00DA11D621F0B
:10228000839FA00D611D221F749F3327A00D611D28
:10229000231F849F600D211D822F762F6A2F11240A
:1022A0009F5750409AF0F1F088234AF0EE0FFF1F3D
:1022B000BB1F661F771F881F91505040A9F79E3F94
:1022C000510580F00C94B6100C9401115F3FE4F3BB
:1022D000983ED4F3869577956795B795F795E795EA
:1022E0009F5FC1F7FE2B880F911D9695879597F9F3
:0622F0000895F894FFCFF1
:1022F600A601A60101000000004702A701D401942F
:08230600020502E301F70100EA
:00000001FF
