:100000000C9462000C9400060C94D9050C948A00A0
:100010000C948A000C947F060C948A000C948A003D
:100020000C948A000C948A000C948A000C948A0028
:100030000C948A000C948A000C948A000C948A0018
:100040000C948F050C948A000C944D060C94270692
:100050000C948A000C948A000C948A000C948A00F8
:100060000C948A000C948A000000000024002700F1
:100070002A0000000000250028002B0000000000DE
:1000800023002600290004040404040404040202DA
:100090000202020203030303030301020408102007
:1000A0004080010204081020010204081020000012
:1000B0000008000201000003040700000000000027
:1000C00000007A0E11241FBECFEFD8E0DEBFCDBFF7
:1000D00011E0A0E0B1E0E6E0F2E202C005900D928E
:1000E000A631B107D9F722E0A6E1B1E001C01D9227
:1000F000A834B207E1F710E0C2E6D0E004C02197CF
:10010000FE010E94BD0EC136D107C9F70E94060745
:100110000C9401110C940000FC019C012B5F3F4FDB
:1001200080E047E09191892798E087FF08C0880F19
:1001300084279150D1F7E217F307A1F70895880FAC
:10014000F8CF833081F028F4813099F08230A9F023
:1001500008958730A9F08830C9F08430B1F48091D7
:1001600080008F7D03C0809180008F778093800016
:10017000089584B58F7784BD089584B58F7DFBCFB6
:100180008091B0008F778093B00008958091B00087
:100190008F7DF9CFCF93DF93282F30E0F901E2551F
:1001A000FF4F8491F901E656FF4FD491F901EA57C8
:1001B000FF4FC491CC23A1F081110E94A100EC2F2C
:1001C000F0E0EE0FFF1FE458FF4FA591B491EC91C2
:1001D000ED2381E090E009F480E0DF91CF91089574
:1001E00080E090E0FACF1F93CF93DF93282F30E089
:1001F000F901E255FF4F8491F901E656FF4FD49182
:10020000F901EA57FF4FC491CC23A9F0162F8111B1
:100210000E94A100EC2FF0E0EE0FFF1FEE58FF4F01
:10022000A591B4918FB7F894EC91111108C0D095B5
:10023000DE23DC938FBFDF91CF911F910895DE2BDA
:10024000F8CFCF93DF9390E0FC01E656FF4F249167
:100250008A579F4FFC0184918823D1F090E0880F4A
:10026000991FFC01E859FF4FA591B491FC01EE588C
:10027000FF4FC591D491623071F49FB7F8943C91CF
:10028000822F809583238C93E8812E2B28839FBF18
:10029000DF91CF9108958FB7F894EC912E2B2C938A
:1002A0008FBFF6CF1F93CF93DF93182FEB0161E041
:1002B0000E942101209739F460E0812FDF91CF91D6
:1002C0001F910C94F300CF3FD10511F461E0F5CFFD
:1002D000E12FF0E0E255FF4FE491E33031F140F4DB
:1002E000E130B1F0E230E1F0C038D1057CF7E4CF85
:1002F000E73029F1E83059F1E430B1F7809180001E
:10030000806280938000D0938B00C0938A0004C0E9
:1003100084B5806884BDC7BDDF91CF911F910895DA
:1003200084B5806284BDC8BDF7CF809180008068AD
:1003300080938000D0938900C0938800EDCF809196
:10034000B00080688093B000C093B300E5CF809187
:10035000B00080628093B000C093B400DDCF2FB7AF
:10036000F894609144027091450280914602909108
:1003700047022FBF08950895AF92BF92CF92DF92A8
:10038000EF92FF920F931F93CF93DF936C017B014A
:100390008B01040F151FEB015E01AE18BF08C017DB
:1003A000D10759F06991D601ED91FC910190F0814E
:1003B000E02DC6010995892B79F7C501DF91CF9111
:1003C0001F910F91FF90EF90DF90CF90BF90AF9073
:1003D0000895FC01538D448D252F30E0842F90E04B
:1003E000821B930B541710F0CF9608950197089530
:1003F000FC01918D828D981761F0A28DAE0FBF2FF9
:10040000B11D5D968C91928D9F5F9F73928F90E04E
:1004100008958FEF9FEF0895FC01918D828D9817BD
:1004200031F0828DE80FF11D858D90E008958FEFFA
:100430009FEF0895FC01918D228D892F90E0805CC3
:100440009F4F821B91098F739927089580E291E055
:100450000E941A0221E0892B09F420E0822F0895DE
:1004600080E090E0892B29F00E94260281110C94F3
:1004700000000895FC01A48DA80FB92FB11DA35A47
:10048000BF4F2C91848D90E001968F739927848FB4
:10049000A689B7892C93A089B1898C9183708064D7
:1004A0008C93938D848D981306C00288F389E02D78
:1004B00080818F7D80830895EF92FF920F931F9329
:1004C000CF93DF93EC0181E0888F9B8D8C8D981307
:1004D0001AC0E889F989808185FF15C09FB7F89413
:1004E000EE89FF896083E889F9898081837080645F
:1004F00080839FBF81E090E0DF91CF911F910F91AA
:10050000FF90EF900895F62E0B8D10E00F5F1F4FB8
:100510000F731127E02E8C8D8E110CC00FB607FCC7
:10052000FACFE889F989808185FFF5CFCE010E9455
:100530003A02F1CFEB8DEC0FFD2FF11DE35AFF4F87
:10054000F0829FB7F8940B8FEA89FB8980818062E3
:10055000CFCFCF93DF93EC01888D8823B9F0AA89A0
:10056000BB89E889F9898C9185FD03C0808186FD6E
:100570000DC00FB607FCF7CF8C9185FFF2CF8081BD
:1005800085FFEDCFCE010E943A02E9CFDF91CF91F6
:1005900008954F925F926F927F928F929F92AF9247
:1005A000BF92CF92DF92EF92FF920F931F93CF9360
:1005B000DF9300D000D000D0CDB7DEB79E838D830F
:1005C0004A015B0109831A832B833C83B70190E0C6
:1005D00080E00E94DD0F20E030E04AE754E40E9412
:1005E000350F2B013C0120E030E0A9010E94300FC3
:1005F00018160CF0D0C029813A814B815C81C5016D
:10060000B4010E94C30E4B015C01ED81FE8120818B
:100610003181428153810E94941069837A838B8354
:100620009C83A5019401C301B2010E949410ED8145
:10063000FE8124853585468557850E94C40EED814F
:10064000FE816487758786879787C488D588E68802
:10065000F788A70196010E948F10181634F4ED81D7
:10066000FE81C486D586E686F786F7FAF094F7F819
:10067000F094A7019601ED81FE81648575858685DC
:1006800097850E94300F87FF06C0ED81FE81C486EA
:10069000D586E686F786ED81FE81248535854685FB
:1006A000578564817581868197810E9494106B01C2
:1006B0007C01ED81FE812089318942895389C50100
:1006C000B4010E94C30EA30192010E94350FED8177
:1006D000FE8120853185428553850E9494102B012F
:1006E0003C01ED81FE81808A918AA28AB38AA701AA
:1006F000960169817A818B819C810E94C40EA3013D
:1007000092010E94C40E6B017C01ED81FE81628D1D
:10071000738D072E000C880B990B0E94DF0F4B0185
:100720005C019601A7010E94300F87FF02C064019F
:100730007501ED81FE81608D718D072E000C880B97
:10074000990B0E94DF0F5B018D8399839601A701AE
:100750000E948F1018161CF46501ED80F980B60117
:10076000C7010E94A70FCB0126960FB6F894DEBFF3
:100770000FBECDBFDF91CF911F910F91FF90EF90F2
:10078000DF90CF90BF90AF909F908F907F906F90B1
:100790005F904F90089590E080E0E6CF61E087E0C1
:1007A0000E94F30061E088E00E94F3006FEF70E0C8
:1007B00086E00E94520161E08AE00E94F30061E05D
:1007C0008BE00E94F3006FEF70E089E00C9452011F
:1007D000CF93DF93EC011816190684F461E08AE0E8
:1007E0000E94F30060E08BE00E94F300BE01CF3F67
:1007F000D105A9F0A4F06FEF70E011C0892BA1F032
:1008000060E08AE00E94F30061E08BE00E94F30068
:10081000662777276C1B7D0BC130DF4F64F389E0BF
:10082000DF91CF910C94520161E08AE00E94F300C5
:1008300061E08BE00E94F30070E060E0F0CFCF93C6
:10084000DF93EC011816190684F461E087E00E943A
:10085000F30060E088E00E94F300BE01CF3FD105C5
:10086000A9F0A4F06FEF70E011C0892BA1F060E057
:1008700087E00E94F30061E088E00E94F3006627B1
:1008800077276C1B7D0BC130DF4F64F386E0DF916F
:10089000CF910C94520161E087E00E94F30061E087
:1008A00088E00E94F30070E060E0F0CFCF93DF9328
:1008B00082E00E94CA00EC0183E00E94CA00C817CF
:1008C000D90749F58091BD019091BE01A091BF016A
:1008D000B091C0010196A11DB11D8093BD019093FF
:1008E000BE01A093BF01B093C001809128029091F6
:1008F0002902A0912A02B0912B020196A11DB11DDF
:100900008093280290932902A0932A02B0932B028D
:10091000DF91CF9108958091BD019091BE01A0918A
:10092000BF01B091C0010197A109B1098093BD0138
:100930009093BE01A093BF01B093C00180912802A3
:1009400090912902A0912A02B0912B020197A1094E
:10095000B109D6CFCF93DF9382E00E94CA00EC01A9
:1009600083E00E94CA00C817D90749F58091BD01EC
:100970009091BE01A091BF01B091C0010197A10962
:10098000B1098093BD019093BE01A093BF01B093C4
:10099000C0018091280290912902A0912A02B09171
:1009A0002B020197A109B109809328029093290293
:1009B000A0932A02B0932B02DF91CF9108958091EA
:1009C000BD019091BE01A091BF01B091C0010196FF
:1009D000A11DB11D8093BD019093BE01A093BF01E5
:1009E000B093C0018091280290912902A0912A021F
:1009F000B0912B020196A11DB11DD6CF48E050E069
:100A0000BC0180E291E00C94BC01CF93DF93CDB7A1
:100A1000DEB728970FB6F894DEBF0FBECDBF9AEAB7
:100A2000998395E89A8386958B8366956C83413884
:100A30008FEF580724F14038510514F04FE750E08C
:100A40004D8321388FEF3807E4F02038310514F05A
:100A50002FE730E02E83CE0102960E948C008F8318
:100A600085E58887CE0101960E94FE0428960FB680
:100A7000F894DEBF0FBECDBFDF91CF91089541E85E
:100A8000DFCF21E8E7CFCF93DF93CDB7DEB728974D
:100A90000FB6F894DEBF0FBECDBF9AEA998394E8F3
:100AA0009A838B831C827E836D83CE0102960E9483
:100AB0008C008F8385E58887CE0101960E94FE0415
:100AC00028960FB6F894DEBF0FBECDBFDF91CF9151
:100AD0000895CF93DF93CDB7DEB728970FB6F8947C
:100AE000DEBF0FBECDBF8AEA898383E88A831C827A
:100AF0001B821E821D82CE0102960E948C008F8373
:100B000085E58887CE0101960E94FE0428960FB6DF
:100B1000F894DEBF0FBECDBFDF91CF9108951F9235
:100B20000F920FB60F9211242F933F938F939F93A1
:100B3000AF93BF938091440290914502A0914602E9
:100B4000B09147023091430226E0230F2D3758F52C
:100B50000296A11DB11D20934302809344029093FD
:100B60004502A0934602B093470280913F029091C4
:100B70004002A0914102B09142020196A11DB11D17
:100B800080933F0290934002A0934102B0934202AF
:100B9000BF91AF919F918F913F912F910F900FBE79
:100BA0000F901F90189529E8230F0396A11DB11DE2
:100BB000D2CF1F920F920FB60F9211242F933F9313
:100BC0004F935F936F937F938F939F93AF93BF9355
:100BD000EF93FF93E0910201F09103010995FF91DA
:100BE000EF91BF91AF919F918F917F916F915F91A5
:100BF0004F913F912F910F900FBE0F901F9018951E
:100C00001F920F920FB60F9211242F933F934F9381
:100C10005F936F937F938F939F93AF93BF93EF9364
:100C2000FF93E0910001F09101010995FF91EF918F
:100C3000BF91AF919F918F917F916F915F914F91F4
:100C40003F912F910F900FBE0F901F9018951F92FC
:100C50000F920FB60F9211242F933F934F935F93F0
:100C60006F937F938F939F93AF93BF93EF93FF9374
:100C700080E291E00E943A02FF91EF91BF91AF9123
:100C80009F918F917F916F915F914F913F912F91A4
:100C90000F900FBE0F901F9018951F920F920FB6D6
:100CA0000F9211242F938F939F93EF93FF93E091D3
:100CB0003001F09131018081E0913601F0913701EE
:100CC00082FD1BC09081809139018F5F8F732091CD
:100CD0003A01821741F0E0913901F0E0E05EFE4F09
:100CE000958F80933901FF91EF919F918F912F9173
:100CF0000F900FBE0F901F9018958081F4CF1F9218
:100D00000F920FB60F9211240F931F932F933F93BF
:100D10004F935F936F937F938F939F93AF93BF9303
:100D2000EF93FF9384E00E94CA008C0185E00E944B
:100D3000CA00000F111F802B90911601981709F41B
:100D40004EC0E091160194E0E99FF0011124E82BD8
:100D50003197EE30F10508F057C0EF54F94F0C947D
:100D6000BD0EBF0602070407020704070407BF06FB
:100D7000BF0604070407020704070207BF0641E095
:100D8000042E000C550B660B770B0091C1011091DE
:100D9000C2012091C3013091C401040F151F261F09
:100DA000371F0093C1011093C2012093C3013093F8
:100DB000C401009124021091250220912602309155
:100DC0002702400F511F621F731F4093240250934C
:100DD0002502609326027093270280931601FF91EB
:100DE000EF91BF91AF919F918F917F916F915F91A3
:100DF0004F913F912F911F910F910F900FBE0F9028
:100E00001F9018954FEFBCCF40E0BACFCF93DF9340
:100E1000CDB7DEB760970FB6F894DEBF0FBECDBF7B
:100E2000789484B5826084BD84B5816084BD85B5C5
:100E3000826085BD85B5816085BD80916E008160D1
:100E400080936E0010928100809181008260809377
:100E50008100809181008160809381008091800079
:100E60008160809380008091B10084608093B100A4
:100E70008091B00081608093B00080917A0084609E
:100E800080937A0080917A00826080937A008091CA
:100E90007A008E7F80937A0080917A0080688093B8
:100EA0007A001092C10061E08DE00E94210161E0B2
:100EB0008DE00E94F300E0913001F091310182E079
:100EC0008083E0912C01F0912D011082E0912E01A0
:100ED000F0912F0188E0808310923801E091340175
:100EE000F091350186E08083E0913201F091330189
:100EF000808180618083E0913201F09133018081B3
:100F000088608083E0913201F091330180818068B4
:100F10008083E0913201F091330180818F7D808365
:100F200062E082E00E94210162E083E00E942101F0
:100F300062E084E00E94210162E085E00E942101DC
:100F40008AEA94E090930101809300018091690006
:100F50008C7F816080936900E89A86E594E09093A5
:100F600003018093020180916900837F84608093F4
:100F70006900E99A84E00E94CA008C0185E00E9421
:100F8000CA00000F111F082B009316018091680002
:100F900084608093680080916D00806380936D0011
:100FA00061E086E00E94210161E087E00E9421016A
:100FB00061E088E00E94210161E089E00E94210156
:100FC00061E08AE00E94210161E08BE00E94210142
:100FD0000E94CE0390E080E00E94A70E8A3C09F4B4
:100FE00009C180E090E0A0E0B0E48093D20190934A
:100FF000D301A093D401B093D50180E090E0A0E0AC
:10100000BFE38093D6019093D701A093D801B0930A
:10101000D9018DEC9CECACECBDE38093DA019093AC
:10102000DB01A093DC01B093DD0180E090E0A8E457
:10103000B3E48093DE019093DF01A093E001B093CD
:10104000E1018AE08093E2014091DE015091DF01ED
:101050006091E0017091E1010091DA011091DB01F2
:101060002091DC013091DD018090D6019090D70174
:10107000A090D801B090D9014090D2015090D301F6
:101080006090D4017090D5014092FF01509200020F
:101090006092010270920202809203029092040216
:1010A000A0920502B0920602009307021093080274
:1010B0002093090230930A0210920B0210920C0244
:1010C00010920D0210920E0210920F021092100256
:1010D00010921102109212024093130250931402C4
:1010E0006093150270931602109218021092170264
:1010F0008FEF90E090931A02809319024092E301DF
:101100005092E4016092E5017092E6018092E7015D
:101110009092E801A092E901B092EA010093EB01FC
:101120001093EC012093ED013093EE011092EF014A
:101130001092F0011092F1011092F2011092F3015D
:101140001092F4011092F5011092F6014093F7010C
:101150005093F8016093F9017093FA011092FC0129
:101160001092FB019093FE018093FD010E94AF015C
:101170006093CD017093CE018093CF019093D00105
:1011800088E19FE00FB6F894A895809360000FBEA9
:10119000909360000E94AF0160932002709321023F
:1011A00080932202909323020E94AF0160933B023E
:1011B00070933C0280933D0290933E0260E08DE08C
:1011C0000E94F300A89580E291E00E941A02892B08
:1011D00009F49BC080E291E00E94F801E0911F01B8
:1011E000E1111AC08A3A79F7F1E0F0931F01809378
:1011F0001701E9CF32EDC32E31E0D32E01E010E02C
:10120000C8010E94A70EF60181936F010F5F1F4F67
:1012100002311105A9F718CF91E09E0F90931F019D
:10122000F0E0E95EFE4F8083983068F210921F0173
:1012300080911E01853539F688E0E7E1F1E0DE01B5
:10124000199601900D928A95E1F789858A3A09F0FD
:10125000BACFCE010A960E948C009F858913B3CF26
:101260000E94AF016093CD017093CE018093CF01B6
:101270009093D001EA85E150E83008F046C0F0E0F4
:10128000EC5BF64F0C94BD0E4C09FE0A9F0C890BCB
:10129000D60B820C4F0BA20C3D852E858B859C8531
:1012A0008338910514F082E890E08E374FEF940771
:1012B00014F48EE79FEF90931F0280931E02832FFA
:1012C000922F8338910514F082E890E08E375FEF1B
:1012D000950714F48EE79FEF90931D0280931C02F4
:1012E00081E080931B021092D1011092C9011092EB
:1012F000CA011092CB011092CC011092C50110923C
:10130000C6011092C7011092C8010E94AF0120913E
:101310002002309121021B01221A330A44E12416D3
:10132000310408F4DDC060932002709321028093A1
:10133000220290932302F8948090BD019090BE0108
:10134000A090BF01B090C0017894F894C090C10102
:10135000D090C201E090C301F090C4017894F89459
:101360001092BD011092BE011092BF011092C001F7
:101370007894F8941092C1011092C2011092C301A6
:101380001092C4017894B10190E080E00E94DD0FDA
:101390009B01AC0160E070E68AE697E40E94350F9D
:1013A0002B013C01C501B4010E94DF0F20E030E0B9
:1013B0004DEF54E40E94350FA30192010E94941056
:1013C0004B015C018092330290923402A09235026C
:1013D000B0923602C701B6010E94DF0F20E030E074
:1013E0004DEF54E40E94350FA30192010E94941026
:1013F0002B013C0140923702509238026092390230
:1014000070923A0200912D0210912C020E94AF01BD
:101410006B017C018091CD019091CE01A091CF0113
:10142000B091D001A7019601281B390B4A0B5B0B29
:10143000DA01C901853F9140A105B10508F497C2C1
:1014400084E08093D1010E94CE0310922F0210926B
:101450002E02109231021092300210921F0210924E
:101460001E0210921D0210921C0210921B0210927A
:101470000B0210920C0210920D0210920E021092AA
:101480000F0210921002109211021092120210928A
:10149000EF011092F0011092F1011092F2011092FE
:1014A000F3011092F4011092F5011092F6011092DE
:1014B0002C0210922D028091D1014AEA498352E810
:1014C0005A838B831C821D821E82CE0102960E944B
:1014D0008C008F8385E58887CE0101960E94FE04EB
:1014E0000E94AF0100913B0210913C0220913D020D
:1014F00030913E026B017C01C01AD10AE20AF30A64
:1015000097018601043611052105310508F469C0EB
:1015100060933B0270933C0280933D0290933E02A5
:1015200060913702709138028091390290913A02AD
:101530000E94A70F2B0160913302709134028091B9
:101540003502909136020E94A70F8AEAD82ED982DE
:1015500021E82A837C836B835E824D82CE010296D2
:101560000E948C008F8395E5E92EE886CE010196D6
:101570000E94FE0480913202882399F1209130026A
:101580003091310240912E0250912F0260912D0234
:1015900080912C020E940505F8948091240290917C
:1015A0002502A0912602B09127027894F8944091E8
:1015B00028025091290260912A0270912B0278949E
:1015C000D98226E82A835C834B839E838D83CE0158
:1015D00002960E948C008F83E886CE0101960E94BD
:1015E000FE0420E030E0232B09F4ECCD0E9426021B
:1015F000882309F4E7CD0E940000E4CD10921F0279
:1016000010921E0210921D0210921C0210922F02C4
:1016100010922E02109231021092300210921B0290
:1016200060E087E00E94F30060E088E00E94F30041
:1016300070E060E086E00E94520160E08AE00E9473
:10164000F30060E08BE00E94F30070E060E089E06E
:101650000E94520110920B0210920C0210920D0285
:1016600010920E0210920F021092100210921102AC
:10167000109212021092EF011092F0011092F101FB
:101680001092F2011092F3011092F4011092F50100
:101690001092F60110922C0210922D0236CE10926A
:1016A0001F0210921E0210921D0210921C02109234
:1016B0002F0210922E0210923102109230021092DC
:1016C0001B020E94CE0310920B0210920C02109289
:1016D0000D0210920E0210920F0210921002109240
:1016E0001102109212021092EF011092F00110926A
:1016F000F1011092F2011092F3011092F401109294
:10170000F5011092F6019FEF90932C0290932D0219
:10171000FCCD20E030E048EC52E46091D2017091C1
:10172000D3018091D4019091D5010E9494100E9420
:10173000A70F81E00E94430520E030E048EC52E42E
:101740006091D6017091D7018091D8019091D90113
:101750000E9494100E94A70F82E00E94430520E09F
:1017600030E048EC52E46091DA017091DB01809145
:10177000DC019091DD010E9494100E94A70F83E08C
:101780000E9443056091DE017091DF018091E001CC
:101790009091E1010E94A70F84E00E9443056091AF
:1017A000E20170E085E00E944305AFCD1B85CD844A
:1017B000DE84B6010D2C000C880B990B0E94DF0F04
:1017C0002B013C0120E030E048EC52E40E94350F50
:1017D000133009F485C008F069C0113009F46EC0F7
:1017E000123009F474C08090D2019090D301A0907F
:1017F000D401B090D5018092FF0190920002A09296
:101800000102B09202024090D6015090D701609040
:10181000D8017090D9014092030250920402609264
:101820000502709206024091DA015091DB0160914D
:10183000DC017091DD014093070250930802609330
:10184000090270930A028091DE019091DF01A0915C
:10185000E001B091E1018093130290931402A093F0
:101860001502B09316028092E3019092E401A092D7
:10187000E501B092E6014092E7015092E8016092E2
:10188000E9017092EA014093EB015093EC016093FF
:10189000ED017093EE018093F7019093F801A0930E
:1018A000F901B093FA01B601812F7DCF143009F10F
:1018B000153009F098CFC092E20195CF6093D20124
:1018C0007093D3018093D4019093D5018CCF609312
:1018D000D6017093D7018093D8019093D90183CF1B
:1018E0006093DA017093DB018093DC019093DD015A
:1018F0007ACF4092DE015092DF016092E001709257
:10190000E10171CF6AEC90E080E00E94AF0E02ED41
:1019100011E0CC24C394D12CF801B1908F01C60101
:101920000E94A70EB81621F06B2DC6010E94AF0EC3
:10193000FFEFCF1ADF0A22E1C216D10469F70E9435
:101940006905E3CC8091320231E083278093320233
:10195000209130023091310240912E0250912F029D
:1019600060912D0280912C020E940505CECC193C7D
:1019700008F4DEC0C501B4010E94A70F6C5F7F4F61
:101980006930710508F0D4C08091C9019091CA01F5
:10199000A091CB01B091CC010097A105B10509F050
:1019A000ADC0C092C901D092CA01E092CB01F092C1
:1019B000CC01093C08F4DFC0C301B2010E94A70FAB
:1019C0006C5F7F4F6930710508F0D5C08091C5010B
:1019D0009091C601A091C701B091C8010097A105DF
:1019E000B10509F0AEC0C092C501D092C601E09227
:1019F000C701F092C80180911B02882309F470CDC1
:101A00008091E20190E040911E0250911F022091CE
:101A10002E0230912F02BA01621B730B86179707B3
:101A20000CF0B2C0280F391F30932F0220932E02E2
:101A300040911C0250911D022091300230913102E0
:101A4000BA01621B730B861797070CF0ACC0820FAC
:101A5000931F9093310280933002C0902E02D09059
:101A60002F02C114D10409F0B1C0C501B4010E9414
:101A7000A70F6C5F7F4F6930710508F00FC190E0D0
:101A800080E00E941F0410922C0210920B02109210
:101A90000C0210920D0210920E0210920F02109280
:101AA00010021092110210921202A0903002B09017
:101AB0003102A114B10409F0BDC0C301B2010E94FA
:101AC000A70F6C5F7F4F6930710508F0FDC090E093
:101AD00080E00E94E80310922D021092EF01109214
:101AE000F0011092F1011092F2011092F3011092A4
:101AF000F4011092F5011092F601F2CCA7019601C3
:101B0000281B390B4A0B5B0BDA01C901893E934054
:101B1000A105B10508F44DCF41E04093D1011092E9
:101B2000C9011092CA011092CB011092CC018BCC4A
:101B30001092C9011092CA011092CB011092CC01EF
:101B400038CFA7019601281B390B4A0B5B0BDA0132
:101B5000C901893E9340A105B10508F44CCF82E04C
:101B60008093D1011092C5011092C6011092C70155
:101B70001092C80168CC1092C5011092C601109253
:101B8000C7011092C80137CFEE27FF27E81BF90BDA
:101B90006E177F071CF4281B390B46CF50932F027A
:101BA00040932E0245CFEE27FF27E81BF90B6E1757
:101BB0007F073CF4281B390B30933102209330020D
:101BC0004CCF509331024093300247CF20E030E0B9
:101BD000A901C501B4010E948F10181624F0B7FAAC
:101BE000B094B7F8B094B601D7FE04C06627772743
:101BF0006C197D09072E000C880B990B0E94DF0FD2
:101C0000AB01BC017101950184018FEF91E00E944D
:101C1000C9028C0188279927801B910BD7FEC80128
:101C20000E941F0417FF03C011950195110900932D
:101C30002C023BCF20E030E0A901C301B2010E9499
:101C40008F10181624F077FA709477F87094B50115
:101C5000B7FE04C0662777276A197B09072E000C98
:101C6000880B990B0E94DF0FAB01BC01710193013E
:101C7000820183EE91E00E94C9028C018827992796
:101C8000801B910BB7FEC8010E94E80317FF03C039
:101C900011950195110900932D0222CC20E030E02E
:101CA000A901C501B4010E948F1018160CF097CF3E
:101CB00071019501840140E050E0BA018FEF91E09D
:101CC0000E94C9028C01ACCF20E030E0A901C30121
:101CD000B2010E948F1018160CF0B5CF710193015C
:101CE000820140E050E0BA0183EE91E00E94C90217
:101CF0008C01CACFE0E2F1E01382128288EE93E019
:101D0000A0E0B0E084839583A683B78388E091E068
:101D10009183808385EC90E09587848784EC90E0C4
:101D20009787868780EC90E0918B808B81EC90E0A8
:101D3000938B828B82EC90E0958B848B86EC90E089
:101D4000978B868B118E128E138E148E0895F999AF
:101D5000FECF92BD81BDF89A992780B50895262FB0
:101D6000F999FECF1FBA92BD81BD20BD0FB6F89480
:101D7000FA9AF99A0FBE01960895EE0FFF1F05908B
:101D8000F491E02D09945058BB27AA270E94DB0E3E
:101D90000C9455100E94471038F00E944E1020F00D
:101DA00039F49F3F19F426F40C9444100EF4E09596
:101DB000E7FB0C943E10E92F0E94661058F3BA1707
:101DC000620773078407950720F079F4A6F50C9451
:101DD00088100EF4E0950B2EBA2FA02D0B01B9013F
:101DE00090010C01CA01A0011124FF27591B99F091
:101DF000593F50F4503E68F11A16F040A22F232F9D
:101E0000342F4427585FF3CF469537952795A795EC
:101E1000F0405395C9F77EF41F16BA0B620B730B93
:101E2000840BBAF09150A1F0FF0FBB1F661F771F04
:101E3000881FC2F70EC0BA0F621F731F841F48F4B9
:101E4000879577956795B795F7959E3F08F0B0CF42
:101E50009395880F08F09927EE0F97958795089529
:101E60000E941A1008F481E008950E94490F0C9412
:101E700055100E944E1058F00E94471040F029F46F
:101E80005F3F29F00C943E1051110C9489100C9472
:101E900044100E94661068F39923B1F3552391F31F
:101EA000951B550BBB27AA2762177307840738F0C9
:101EB0009F5F5F4F220F331F441FAA1FA9F335D026
:101EC0000E2E3AF0E0E832D091505040E695001CDA
:101ED000CAF72BD0FE2F29D0660F771F881FBB1F94
:101EE000261737074807AB07B0E809F0BB0B802D72
:101EF000BF01FF2793585F4F3AF09E3F510578F09E
:101F00000C943E100C9489105F3FE4F3983ED4F398
:101F1000869577956795B795F7959F5FC9F7880F71
:101F2000911D9695879597F90895E1E0660F771FC3
:101F3000881FBB1F621773078407BA0720F0621B54
:101F4000730B840BBA0BEE1F88F7E09508950E947F
:101F5000AE0F6894B1110C94891008950E946E1010
:101F600088F09F5798F0B92F9927B751B0F0E1F05A
:101F7000660F771F881F991F1AF0BA95C9F714C00A
:101F8000B13091F00E948810B1E008950C9488104F
:101F9000672F782F8827B85F39F0B93FCCF3869543
:101FA00077956795B395D9F73EF4909580957095A0
:101FB00061957F4F8F4F9F4F0895E89409C097FB1D
:101FC0003EF490958095709561957F4F8F4F9F4F10
:101FD0009923A9F0F92F96E9BB279395F695879554
:101FE00077956795B795F111F8CFFAF4BB0F11F417
:101FF00060FF1BC06F5F7F4F8F4F9F4F16C08823BE
:1020000011F096E911C0772321F09EE8872F762FF3
:1020100005C0662371F096E8862F70E060E02AF034
:102020009A95660F771F881FDAF7880F9695879520
:1020300097F90895990F0008550FAA0BE0E8FEEFF5
:1020400016161706E807F907C0F012161306E4077C
:10205000F50798F0621B730B840B950B39F40A2675
:1020600061F0232B242B252B21F408950A2609F453
:10207000A140A6958FEF811D811D089597F99F6757
:1020800080E870E060E008959FEF80EC0895002400
:102090000A941616170618060906089500240A94CD
:1020A00012161306140605060895092E0394000C53
:1020B00011F4882352F0BB0F40F4BF2B11F460FFE2
:1020C00004C06F5F7F4F8F4F9F4F089557FD90580B
:1020D000440F551F59F05F3F71F04795880F97FBEC
:1020E000991F61F09F3F79F08795089512161306A6
:1020F0001406551FF2CF4695F1DF08C016161706D5
:102100001806991FF1CF8695710561050894089509
:10211000E894BB2766277727CB0197F908950E949B
:102120001A1008F48FEF08950E94A7100C94551010
:102130000E94471038F00E944E1020F0952311F0B5
:102140000C943E100C94441011240C9489100E949D
:10215000661070F3959FC1F3950F50E0551F629F75
:10216000F001729FBB27F00DB11D639FAA27F00DF0
:10217000B11DAA1F649F6627B00DA11D661F829F17
:102180002227B00DA11D621F739FB00DA11D621FFC
:10219000839FA00D611D221F749F3327A00D611D19
:1021A000231F849F600D211D822F762F6A2F1124FB
:1021B0009F5750409AF0F1F088234AF0EE0FFF1F2E
:1021C000BB1F661F771F881F91505040A9F79E3F85
:1021D000510580F00C943E100C9489105F3FE4F39D
:1021E000983ED4F3869577956795B795F795E795DB
:1021F0009F5FC1F7FE2B880F911D9695879597F9E4
:062200000895F894FFCFE1
:10220600BB01BB01000000005C02BC01E901A902A0
:062216001A02F8010C029F
:00000001FF
